:100000000C9434000C9446000C9446000C9446006A
:100010000C9446000C9446000C9446000C94460048
:100020000C9446000C9446000C9446000C94460038
:100030000C9446000C9446000C9446000C94460028
:100040000C9446000C9446000C9446000C94460018
:100050000C9446000C9446000C9446000C94460008
:100060000C9446000C94460011241FBECFEFD8E03C
:10007000DEBFCDBF21E0A0E0B1E001C01D92AF30F6
:10008000B207E1F70E9413010C94DE020C94000009
:1000900084B1826084B9109285001092840083EC50
:1000A00099E0909387008093860082E88093800097
:1000B0008BE18093810008952FEF3DE349E42150C7
:1000C00030404040E1F700C00000909389008093E9
:1000D00088008FEF9DE329E4815090402040E1F7B4
:1000E00000C0000008951092C50087E68093C40008
:1000F00088E98093C10086E08093C20078940895D7
:100100009091C00095FFFCCF8093C6000895EAE768
:10011000F0E0808180688083808187608083808137
:10012000806480830895ECE7F0E08081807F8083A5
:1001300080818F738083EAE7F0E080818064808330
:1001400080917A0086FDFCCF8091780090917900B3
:100150000895CF93DF939C01EAE0F0E0BF010E9495
:10016000B60290930A0180930901C4E6D0E0C90168
:10017000BE010E94B602BF010E94B60270930E013A
:1001800060930D01E8EEF3E0C901BF010E94B602E1
:10019000BE010E94B60270930C0160930B01C9016D
:1001A00060E177E20E94B602BF010E94B60260934E
:1001B0000201709303011092050110920401605D29
:1001C00060930801809108010E94800080910B01DA
:1001D000805D80930801809108010E9480008091D9
:1001E0000D01805D80930801809108010E948000CC
:1001F00080910901805D80930801809108010E942F
:1002000080008AE00E9480008DE00E9480002FEF35
:1002100089E698E1215080409040E1F700C000005D
:10022000DF91CF9108950E9448008AB1837B8AB9FB
:100230008AB1806B8AB90E9473000E94870084B1E2
:10024000846084B98BB180628BB98BB180688BB9C3
:100250002FEF81EE94E0215080409040E1F700C004
:1002600000008BB18F778BB92FEF81EE94E0215096
:1002700080409040E1F700C000008BB180688BB9EE
:100280002FEF81EE94E0215080409040E1F700C0D4
:1002900000008BB18F778BB90E949300909301017E
:1002A000809300010E94A9008091000190910101BA
:1002B00081399140C4F085B1846085B98BB1806883
:1002C0008BB988E691E00E945C00109207011092C1
:1002D00006018FEF91EE24E0815090402040E1F73D
:1002E00000C0000003C085B18B7F85B94A9B7CC0EC
:1002F0008091060190910701019709F045C08BB1EB
:1003000080618BB98FEF90E722E0815090402040D0
:10031000E1F700C0000088E691E00E945C001092C6
:100320000701109206018BB180618BB98FEF91EEBE
:1003300024E0815090402040E1F700C000008BB1E4
:100340008F7E8BB98FEF91EE24E08150904020405A
:10035000E1F700C000008BB180618BB98FEF91EEA7
:1003600024E0815090402040E1F700C000008BB1B4
:100370008F7E8BB98FEF91EE24E08150904020402A
:10038000E1F700C0000030C08BB180618BB98FEF06
:1003900091EE24E0815090402040E1F700C0000041
:1003A0008BB18F7E8BB98FEF91EE24E0815090401E
:1003B0002040E1F700C000008BB180618BB98FEF66
:1003C00091EE24E0815090402040E1F700C0000011
:1003D0008BB18F7E8BB98FEF91EE24E081509040EE
:1003E0002040E1F700C000004E9B3FC08BB1806110
:1003F0008BB98FEF90E722E0815090402040E1F7E9
:1004000000C000008BB18F778BB98BB180618BB945
:100410008FEF91EE24E0815090402040E1F700C042
:1004200000008BB18F7E8BB98FEF91EE24E081506D
:1004300090402040E1F700C000008BB180618BB993
:100440008FEF91EE24E0815090402040E1F700C012
:1004500000008BB18F7E8BB98FEF91EE24E081503D
:1004600090402040E1F700C000004B9B15CF8091E9
:10047000060190910701892B09F047C08BB180617B
:100480008BB98FEF90E722E0815090402040E1F758
:1004900000C0000088E790E00E945C0081E090E0EE
:1004A00090930701809306018BB180618BB98FEF28
:1004B00091EE24E0815090402040E1F700C0000020
:1004C0008BB18F7E8BB98FEF91EE24E081509040FD
:1004D0002040E1F700C000008BB180618BB98FEF45
:1004E00091EE24E0815090402040E1F700C00000F0
:1004F0008BB18F7E8BB98FEF91EE24E081509040CD
:100500002040E1F700C00000C7CE8BB180618BB9FD
:100510008FEF91EE24E0815090402040E1F700C041
:1005200000008BB18F7E8BB98FEF91EE24E081506C
:1005300090402040E1F700C000008BB180618BB992
:100540008FEF91EE24E0815090402040E1F700C011
:1005500000008BB18F7E8BB98FEF91EE24E081503C
:1005600090402040E1F700C0000096CE97FB072E98
:1005700016F4009407D077FD09D00E94CA0207FC48
:1005800005D03EF4909581959F4F089570956195A3
:100590007F4F0895AA1BBB1B51E107C0AA1FBB1FB9
:1005A000A617B70710F0A61BB70B881F991F5A95FF
:1005B000A9F780959095BC01CD010895F894FFCFDF
:00000001FF
